:040000001FEF0AF0F4
:1008000000010000000A00000064000000E803008E
:100810000010270000A086010040420F008096983B
:100820000000E1F50500CA9A3B70616472657320AF
:1008300068697065723F206E6F20302020736920D8
:1008400020312000256C752C256C752C256C752CA1
:10085000256C752C256C752C256C75005465636CA6
:10086000656520657374617475726128636D290014
:100870005465636C6565207065736F20656E206BD1
:10088000670046756D613F206E6F203020736920D0
:10089000310067656E65726F203020482031204D31
:1008A000005465636C656520656461640000000E3A
:1008B0000001B86F000EB96F000EBA6F000EBB6F6B
:1008C000000E0001BC6F000EBD6F000EBE6F000E6B
:1008D000BF6F000E0001C06F000EC16F000EC26F2F
:1008E000000EC36F000E0001C46F000EC56F000E36
:1008F000C66F000EC76F000E0001C86F000EC96FF3
:10090000000ECA6F000ECB6F000E0001CC6F000E00
:10091000CD6F000ECE6F000ECF6F000E0001B06FD6
:10092000000EB16F000EB26F000EB36F000E00012B
:10093000B46F000EB56F000EB66F000EB76F7FEC90
:100940000AF0010E0C6E010E0D6E4350C8EC08F05B
:10095000A10E0A6E080E0B6E435038EC09F0D9EC6C
:1009600007F00FC0B8F010C0B9F011C0BAF012C053
:10097000BBF07FEC0AF0010E0C6E010E0D6E4350C1
:10098000C8EC08F0700E0A6E080E0B6E435038EC7F
:1009900009F0D9EC07F00FC0C0F010C0C1F011C0D1
:1009A000C2F012C0C3F07FEC0AF0010E0C6E010E13
:1009B0000D6E4350C8EC08F05C0E0A6E080E0B6E0C
:1009C000435038EC09F0D9EC07F00FC0BCF010C070
:1009D000BDF011C0BEF012C0BFF07FEC0AF0010EF6
:1009E0000C6E010E0D6E4350C8EC08F0920E0A6EAC
:1009F000080E0B6E435038EC09F0D9EC07F00FC02D
:100A0000C4F010C0C5F011C0C6F012C0C7F07FEC32
:100A10000AF0010E0C6E010E0D6E4350C8EC08F08A
:100A2000820E0A6E080E0B6E435038EC09F0D9ECBA
:100A300007F00FC0C8F010C0C9F011C0CAF012C052
:100A4000CBF07FEC0AF0010E0C6E010E0D6E4350E0
:100A5000C8EC08F0290E0A6E080E0B6E435038ECF5
:100A600009F0D9EC07F00FC0CCF010C0CDF011C0E8
:100A7000CEF012C0CFF07FEC0AF0600E176E000EC1
:100A8000186E440E196E080E1A6EB8C01BF0B9C06D
:100A90001CF0BAC01DF0BBC01EF0C0C01FF0C1C02A
:100AA00020F0C2C021F0C3C022F0BCC023F0BDC002
:100AB00024F0BEC025F0BFC026F0C4C027F0C5C0DA
:100AC00028F0C6C029F0C7C02AF0C8C02BF0C9C0A2
:100AD0002CF0CAC02DF0CBC02EF0CCC02FF0CDC072
:100AE00030F0CEC031F0CFC032F086EC05F0020E0F
:100AF0000C6E010E0D6E4350C8EC08F0600E0A6ECD
:100B0000000E0B6E435038EC09F012001B0E3C6EC9
:100B1000000E3D6EBAD0250E3E18D8B409D017C0CD
:100B2000D9FF18C0DAFF3EC0DFFF174A182AADD040
:100B3000000E356E05D0358803D0C00E351214D0A6
:100B400019C0F6FF1AC0F7FF194A1A2A0800F5CF94
:100B50003EF03E50000AD8B4A4D06C0AD8B4EBD70B
:100B6000190AD8B4EAD791D035A80ED03CC0D9FF25
:100B70003DC0DAFFDECF38F0DECF39F0DECF3AF01D
:100B8000DECF3BF0040E0FD03CC0D9FF3DC0DAFFF2
:100B9000DECF33F0DDCF34F033C038F034C039F07D
:100BA0003A6A3B6A020E3C26000E3D22010E3E6E62
:100BB0000A0E3E18D8B418D03E50040D010EF3248E
:100BC000F66E080EF420F76E0900F550385C090047
:100BD000F55039580900F5503A580900F5503B587E
:100BE000D8A002D03E2AE4D73E50366E376A36BED1
:100BF000370643D036C033F037C034F0D8903336A0
:100C00003436D89033363436010E3324F66E080E5F
:100C10003420F76E0900F5CF05F00900F5CF06F096
:100C20000900F5CF07F00A00F5CF08F038C001F051
:100C300039C002F03AC003F03BC004F087EC08F082
:100C400001C00EF002C00FF003C010F004C011F09C
:100C50000A0E126E000E136E000E146E000E156E4C
:100C600005EC09F00E50300F3E6E17C0D9FF18C0CA
:100C7000DAFF3EC0DFFF174A182A3606D8A037062B
:100C80003628B8E13728D8A4B5D719C0F6FF1AC05E
:100C9000F7FF194A1A2A0800F5CF3EF03E50D8A4B3
:100CA0003AD717C0D9FF18C0DAFF000EDF6E120066
:100CB0002C0E096E8FD041044210D8A404D0370EF8
:100CC000096E09501200020E41184210D8A404D037
:100CD000380E096E09501200030E41184210D8A4B4
:100CE00004D0390E096E09501200040E411842104A
:100CF000D8A404D02F0E096E09501200050E411819
:100D00004210D8A404D0340E096E09501200060E09
:100D100041184210D8A404D0350E096E09501200B3
:100D2000070E41184210D8A404D0360E096E09509F
:100D30001200080E41184210D8A404D02A0E096EE1
:100D400009501200090E41184210D8A404D0310EE7
:100D5000096E095012000A0E41184210D8A404D09E
:100D6000320E096E095012000B0E41184210D8A421
:100D700004D0330E096E095012000C0E41184210B7
:100D8000D8A404D02D0E096E095012000D0E411882
:100D90004210D8A404D0640E096E095012000E0E41
:100DA00041184210D8A404D0300E096E0950120028
:100DB0000F0E41184210D8A404D03D0E096E095000
:100DC0001200100E41184210D8A404D02B0E096E48
:100DD00009501200F4EC06F00150096E2C0E0918AF
:100DE000D8A469D709501200000E066E000E056ED9
:100DF000000E426E000E416E000E086E000E076E71
:100E000008BE06D0085065E1040E075CD8B061D07A
:100E100007C003F0100E046E032A02D0D8900436E7
:100E2000032EFCD704508C6E83A010D0E40E00D0AB
:100E300000D0E82EFCD700D000D083B0FED7414AC6
:100E4000422A41C001F042C002F0120083A212D037
:100E5000E40E00D000D0E82EFCD700D000D083B242
:100E6000FED7020E4126000E422241C001F042C0D0
:100E700002F0120083A412D0E40E00D000D0E82EBD
:100E8000FCD700D000D083B4FED7030E4126000E5D
:100E9000422241C001F042C002F0120083A612D0EB
:100EA000E40E00D000D0E82EFCD700D000D083B6EE
:100EB000FED7040E4126000E422241C001F042C07E
:100EC00002F01200040E4126000E4222074A082AB0
:100ED00097D705500610D8A41200000E426E000EDF
:100EE000416E120002D0074A082A07C0D9FF08C085
:100EF000DAFF200EDE18D8B4F6D707C0D9FF08C035
:100F0000DAFF090EDE18D8B4EED7000E0D6E000E13
:100F10000C6E000E0B6E07C0D9FF08C0DAFF2D0E55
:100F2000DE18D8A402D00B2A24D007C0D9FF08C0ED
:100F3000DAFF2B0EDE18D8A41ED01BD00CC001F097
:100F40000DC002F0000E046E0A0E036E35EC0AF0BE
:100F500007C0D9FF08C0DAFFDF50096E0A6A0150E6
:100F6000092602500A22D00E09240C6EFF0E0A2018
:100F70000D6E074A082A07C0D9FF08C0DAFFDF5004
:100F800058EC0AF0D8B0DAD70B50D8B40DD00CC05A
:100F900009F00DC00AF0091E0A1E094A0A2A09C0F2
:100FA00007F00AC008F012000CC007F00DC008F0EE
:100FB0001200000E2C6E000E2B6E000E2F6E000E17
:100FC0002E6E2F500FE10A0E2E5CD8B00BD0130EF0
:100FD0002E24D96E000E2F20DA6E000EDF6E2E4A00
:100FE0002F2AEFD758EC06F02D6E2B0E2D18D8B403
:100FF00019D0130E2B24D96E000E2C20DA6E2DC0C2
:10100000DFFF020E0C6E010E0D6E4350C8EC08F0AF
:10101000130E0A6E000E0B6E435038EC09F02B4A8B
:101020002C2AE0D7020E0C6E010E0D6E4350C8EC58
:1010300008F0130E0A6E000E0B6E435038EC09F0E8
:10104000130E076E000E086E72EC07F007C027F053
:1010500008C028F0000E28BEFF0E296E2A6E27C099
:101060000FF028C010F029C011F02AC012F01200B1
:101070000D6E340E0C6EF20EE82EFED70C2EFCD741
:10108000300E076E000E086E0D5097EC09F00D0E35
:101090000C6EFC0EE82EFED70C2EFCD7300E076E21
:1010A000000E086E0D5097EC09F0300E076E000E22
:1010B000086E0D5097EC09F0200E076E000E086EBA
:1010C0000D5097EC09F0280E076E010E086E0D50BA
:1010D00097EC09F0080E076E010E086E0D5097ECA4
:1010E00009F0010E076E010E086E0D5097EC09F025
:1010F000060E076E010E086E0D5097EC09F00C0EEF
:10110000076E010E086E0D5097EC09F01200000EEC
:10111000096E000E0A6E000E0B6E000E0C6E05506E
:10112000061007100810D8B42AD0010E0D6E06D094
:10113000D89005360636073608360D2A08AEF8D799
:10114000D89009360A360B360C360550015C06502D
:1011500002580750035808500458D8A009D0055029
:10116000015E0650025A0750035A0850045A09807B
:10117000D89008320732063205320D2EE1D709C069
:1011800001F00AC002F00BC003F00CC004F0120022
:101190000E6E2DD00D507F0F076E010E086E0E5093
:1011A00097EC09F012000D50BF0F076E010E086E8C
:1011B0000E5097EC09F012000D50930F076E010EC0
:1011C000086E0E5097EC09F012000D50D30F076E09
:1011D000010E086E0E5097EC09F012000D507F0FB3
:1011E000076E010E086E0E5097EC09F012000C50BD
:1011F000010AD8B4CFD7030AD8B4D5D7010AD8B4D6
:10120000DBD7070AD8B4E1D7E9D71250131014106E
:101210001510D8B424D0010E166E06D0D890123610
:10122000133614361536162A15AEF8D712500E5C42
:1012300013500F581450105815501158D8A008D0FA
:1012400012500E5E13500F5A1450105A1550115A66
:10125000D8901532143213321232162EE7D70EC040
:101260000EF00FC00FF010C010F011C011F01200FE
:101270000E6E000E0D6E000E0C6E16D00AC0F6FF3C
:101280000BC0F7FFF86A070EF76403D00800F550AB
:1012900005D0F6CFE9FFF7CFEAFFEF50076E0E500B
:1012A000C5EC09F00A4A0B2A0AC0F6FF0BC0F7FF8B
:1012B000F86A070EF76403D00800F55005D0F6CFA2
:1012C000E9FFF7CFEAFFEF500009D8B41200D6D7F4
:1012D000026E02C0C9FFC6AE02D0FF0E1200C65099
:1012E0000F0B080AD8B40FD0C6500F0B0B0AD8B496
:1012F0000AD0C6889EA6FED7C7A4C7B002D0FE0EED
:101300001200000E1200C6500F0B080AD8B405D008
:10131000C6500F0B0B0AD8A41200C7B0FED776EC4C
:101320000AF0C5AC02D0FE0E1200000E12000A6ECA
:101330000750F00B08090B6E0B500409036E0A509E
:1013400048EC0AF00B50FB0B036E0A5048EC0AF015
:101350000850D8B411D00738F00BF00B08090B6E09
:101360000B500409036E0A5048EC0AF00B50FB0BBB
:10137000036E0A5048EC0AF0060E096E300EE82E95
:10138000FED7092EFCD700D01200086E0750F00BD4
:101390000909096E09500409036E085048EC0AF067
:1013A0000950FB0B036E085048EC0AF00738F00BAD
:1013B000F00B0909096E09500409036E085048EC46
:1013C0000AF00950FB0B036E085048EC0AF01200BB
:1013D000800E016E080E67EC0AF0435038EC08F0FE
:1013E00087EC0AF0000E406E000E3F6E010E076E95
:1013F000010E086E435097EC09F057EC04F0000E14
:10140000026E0A0E016E06EC0AF0F7D7000E056EAA
:10141000000E046E09D0820E036EDE0EE82EFED79B
:10142000032EFCD7044A052A0150045C0550800AAB
:10143000036E0250800A0358D8B01200ECD7180E81
:10144000F66E150EF76E000EF86E0900F5CF43F03C
:1014500001EE00F0500EEE6AE806FDE1426A416AD4
:10146000000EF86E0001E8EF09F001500302F3CF1F
:1014700005F0F4CF06F001500402F35006260250A6
:101480000302F350062605C001F006C002F0120068
:10149000066EC580C5B0FED7065068EC09F0056E33
:1014A000035068EC09F0056EC584C5A41200FDD791
:1014B000036E000E026E3A0E036005D02F0E036419
:1014C00002D0010E026E02C001F001301200026E65
:1014D0003F0EC716000EC66E000EC56E0250C61235
:1014E0000150C71293829380C68A1200C5CF01F0C3
:1014F0001F0E0116D8A4FAD7C7A41200F7D7010E01
:10150000076E010E086E435097EC09F012000F0EA3
:09151000956E000E8C6E12004075
:020000040020DA
:08000000FFFFFFFFFFFFFFFF00
:020000040030CA
:0E00000000051F1FFF8385FF0FC00FE00F409C
:00000001FF
