:04000000FCEF08F019
:1008000000010000000A00000064000000E803008E
:100810000010270000A086010040420F008096983B
:100820000000E1F50500CA9A3B2D2D2D2D2D2D2D13
:100830002D2D2D2D2D2D2D000043617276616A61C5
:0D0840006C00006E756D3A20256C7500008F
:10084E00340E416E000E426EBAD0250E4318D8B447
:10085E0009D030C0D9FF31C0DAFF43C0DFFF304AC4
:10086E00312AADD0000E3A6E05D03A8803D0C00EB4
:10087E003A1214D032C0F6FF33C0F7FF324A332A91
:10088E000800F5CF43F04350000AD8B4A4D06C0A48
:10089E00D8B4EBD7190AD8B4EAD791D03AA80ED06B
:1008AE0041C0D9FF42C0DAFFDECF3DF0DECF3EF0D1
:1008BE00DECF3FF0DECF40F0040E0FD041C0D9FFA7
:1008CE0042C0DAFFDECF38F0DDCF39F038C03DF070
:1008DE0039C03EF03F6A406A020E4126000E4222A7
:1008EE00010E436E0A0E4318D8B418D04350040DAF
:1008FE00010EF324F66E080EF420F76E0900F55083
:10090E003D5C0900F5503E580900F5503F5809006E
:10091E00F5504058D8A002D0432AE4D743503B6E3E
:10092E003C6A3BBE3C0643D03BC038F03CC039F07D
:10093E00D89038363936D89038363936010E3824B4
:10094E00F66E080E3920F76E0900F5CF05F0090096
:10095E00F5CF06F00900F5CF07F00A00F5CF08F045
:10096E003DC001F03EC002F03FC003F040C004F0B5
:10097E0082EC07F001C00EF002C00FF003C010F0C1
:10098E0004C011F00A0E126E000E136E000E146EDD
:10099E00000E156E00EC08F00E50300F436E30C096
:1009AE00D9FF31C0DAFF43C0DFFF304A312A3B06A0
:1009BE00D8A03C063B28B8E13C28D8A4B5D732C015
:1009CE00F6FF33C0F7FF324A332A0800F5CF43F063
:1009DE004350D8A43AD730C0D9FF31C0DAFF000E49
:1009EE00DF6E12002C0E096E8FD046044710D8A46D
:1009FE0004D0370E096E09501200020E4618471029
:100A0E00D8A404D0380E096E09501200030E4618F1
:100A1E004710D8A404D0390E096E09501200040EE6
:100A2E0046184710D8A404D02F0E096E0950120094
:100A3E00050E46184710D8A404D0340E096E09507E
:100A4E001200060E46184710D8A404D0350E096EB3
:100A5E0009501200070E46184710D8A404D0360EBF
:100A6E00096E09501200080E46184710D8A404D07B
:100A7E002A0E096E09501200090E46184710D8A406
:100A8E0004D0310E096E095012000A0E4618471096
:100A9E00D8A404D0320E096E095012000B0E46185F
:100AAE004710D8A404D0330E096E095012000C0E54
:100ABE0046184710D8A404D02D0E096E0950120006
:100ACE000D0E46184710D8A404D0640E096E0950B6
:100ADE0012000E0E46184710D8A404D0300E096E20
:100AEE00095012000F0E46184710D8A404D03D0E20
:100AFE00096E09501200100E46184710D8A404D0E3
:100B0E002B0E096E0950120095EC05F00150096E7E
:100B1E002C0E0918D8A469D709501200000E066EC3
:100B2E00000E056E000E476E000E466E000E086E2D
:100B3E00000E076E08BE06D0085065E1040E075C75
:100B4E00D8B061D007C003F0100E046E032A02D095
:100B5E00D8900436032EFCD704508C6E83A010D090
:100B6E00E40E00D000D0E82EFCD700D000D083B029
:100B7E00FED7464A472A46C001F047C002F012008F
:100B8E0083A212D0E40E00D000D0E82EFCD700D005
:100B9E0000D083B2FED7020E4626000E472246C074
:100BAE0001F047C002F0120083A412D0E40E00D070
:100BBE0000D0E82EFCD700D000D083B4FED7030EB1
:100BCE004626000E472246C001F047C002F0120032
:100BDE0083A612D0E40E00D000D0E82EFCD700D0B1
:100BEE0000D083B6FED7040E4626000E472246C01E
:100BFE0001F047C002F01200040E4626000E4722F6
:100C0E00074A082A97D705500610D8A41200000EDE
:100C1E00476E000E466E120002D0074A082A07C021
:100C2E00D9FF08C0DAFF200EDE18D8B4F6D707C0F9
:100C3E00D9FF08C0DAFF090EDE18D8B4EED7000EC1
:100C4E000D6E000E0C6E000E0B6E07C0D9FF08C0A5
:100C5E00DAFF2D0EDE18D8A402D00B2A24D007C03E
:100C6E00D9FF08C0DAFF2B0EDE18D8A41ED01BD079
:100C7E000CC001F00DC002F0000E046E0A0E036EE1
:100C8E0012EC09F007C0D9FF08C0DAFFDF50096E79
:100C9E000A6A0150092602500A22D00E09240C6E4F
:100CAE00FF0E0A200D6E074A082A07C0D9FF08C09A
:100CBE00DAFFDF5035EC09F0D8B0DAD70B50D8B4E4
:100CCE000DD00CC009F00DC00AF0091E0A1E094A0B
:100CDE000A2A09C007F00AC008F012000CC007F07B
:100CEE000DC008F01200000E2C6E000E2B6E000EC2
:100CFE002F6E000E2E6E2F500FE10A0E2E5CD8B006
:100D0E000BD0130E2E24D96E000E2F20DA6E000E8D
:100D1E00DF6E2E4A2F2AEFD7F9EC04F02D6E2B0E34
:100D2E002D18D8B419D0130E2B24D96E000E2C20EA
:100D3E00DA6E2DC0DFFF010E0C6E010E0D6E4850E7
:100D4E00C3EC07F0130E0A6E000E0B6E485033EC18
:100D5E0008F02B4A2C2AE0D7010E0C6E010E0D6EF8
:100D6E004850C3EC07F0130E0A6E000E0B6E48507F
:100D7E0033EC08F0130E076E000E086E13EC06F03F
:100D8E0007C027F008C028F0000E28BEFF0E296EFF
:100D9E002A6E27C00FF028C010F029C011F02AC00B
:100DAE0012F01200800E016E080E44EC09F048504D
:100DBE0033EC07F05CEC09F0000E456E000E446E4D
:100DCE00010E076E010E086E485092EC08F0600E90
:100DDE00306E000E316E430E326E080E336E7AECAC
:100DEE0006F00FC034F010C035F011C036F012C04E
:100DFE0037F027EC04F0020E0C6E010E0D6E48500B
:100E0E00C3EC07F0600E0A6E000E0B6E485033EC0A
:100E1E0008F0030E0C6E010E0D6E4850C3EC07F079
:100E2E00290E0A6E080E0B6E485033EC08F0040EB5
:100E3E000C6E010E0D6E4850C3EC07F0390E0A6EA3
:100E4E00080E0B6E485033EC08F0000E026E0A0EC0
:100E5E00016EE3EC08F0B4D70D6E340E0C6EF20E8C
:100E6E00E82EFED70C2EFCD7300E076E000E086E45
:100E7E000D5092EC08F00D0E0C6EFC0EE82EFED707
:100E8E000C2EFCD7300E076E000E086E0D5092EC35
:100E9E0008F0300E076E000E086E0D5092EC08F042
:100EAE00200E076E000E086E0D5092EC08F0280E04
:100EBE00076E010E086E0D5092EC08F0080E076ECC
:100ECE00010E086E0D5092EC08F0010E076E010E29
:100EDE00086E0D5092EC08F0060E076E010E086EAD
:100EEE000D5092EC08F00C0E076E010E086E0D50B0
:100EFE0092EC08F01200000E096E000E0A6E000E43
:100F0E000B6E000E0C6E0550061007100810D8B4AC
:100F1E002AD0010E0D6E06D0D8900536063607364D
:100F2E0008360D2A08AEF8D7D89009360A360B3691
:100F3E000C360550015C06500258075003580850F5
:100F4E000458D8A009D00550015E0650025A075029
:100F5E00035A0850045A0980D890083207320632D4
:100F6E0005320D2EE1D709C001F00AC002F00BC008
:100F7E0003F00CC004F012000E6E2DD00D507F0F3A
:100F8E00076E010E086E0E5092EC08F012000D5016
:100F9E00BF0F076E010E086E0E5092EC08F0120095
:100FAE000D50930F076E010E086E0E5092EC08F066
:100FBE0012000D50D30F076E010E086E0E5092ECFC
:100FCE0008F012000D507F0F076E010E086E0E50C6
:100FDE0092EC08F012000C50010AD8B4CFD7030AD5
:100FEE00D8B4D5D7010AD8B4DBD7070AD8B4E1D71D
:100FFE00E9D71250131014101510D8B424D0010EC6
:10100E00166E06D0D8901236133614361536162AAA
:10101E0015AEF8D712500E5C13500F5814501058CE
:10102E0015501158D8A008D012500E5E13500F5AFA
:10103E001450105A1550115AD890153214321332CA
:10104E001232162EE7D70EC00EF00FC00FF010C0E2
:10105E0010F011C011F012000E6E000E0D6E000E8B
:10106E000C6E16D00AC0F6FF0BC0F7FFF86A070E1B
:10107E00F76403D00800F55005D0F6CFE9FFF7CF9F
:10108E00EAFFEF50076E0E50C0EC08F00A4A0B2A2A
:10109E000AC0F6FF0BC0F7FFF86A070EF76403D01D
:1010AE000800F55005D0F6CFE9FFF7CFEAFFEF5075
:1010BE000009D8B41200D6D7026E02C0C9FFC6AE60
:1010CE0002D0FF0E1200C6500F0B080AD8B40FD074
:1010DE00C6500F0B0B0AD8B40AD0C6889EA6FED7F0
:1010EE00C7A4C7B002D0FE0E1200000E1200C650EA
:1010FE000F0B080AD8B405D0C6500F0B0B0AD8A494
:10110E001200C7B0FED753EC09F0C5AC02D0FE0EEC
:10111E001200000E12000A6E0750F00B08090B6E3B
:10112E000B500409036E0A5025EC09F00B50FB0B13
:10113E00036E0A5025EC09F00850D8B411D00738C8
:10114E00F00BF00B08090B6E0B500409036E0A50DE
:10115E0025EC09F00B50FB0B036E0A5025EC09F041
:10116E00060E096E300EE82EFED7092EFCD700D0E3
:10117E001200086E0750F00B0909096E0950040998
:10118E00036E085025EC09F00950FB0B036E085056
:10119E0025EC09F00738F00BF00B0909096E095020
:1011AE000409036E085025EC09F00950FB0B036E81
:1011BE00085025EC09F01200000E056E000E046EAC
:1011CE0009D0820E036EDE0EE82EFED7032EFCD75C
:1011DE00044A052A0150045C0550800A036E025031
:1011EE00800A0358D8B01200ECD7C20EF66E120E5B
:1011FE00F76E000EF86E0900F5CF48F000EE60F0C5
:10120E00500EEE6AE806FDE1476A466A000EF86E79
:10121E000001D9EF06F001500302F3CF05F0F4CF31
:10122E0006F001500402F350062602500302F3505A
:10123E00062605C001F006C002F01200066EC5803B
:10124E00C5B0FED7065063EC08F0056E035063EC94
:10125E0008F0056EC584C5A41200FDD7036E000EFE
:10126E00026E3A0E036005D02F0E036402D0010EFB
:10127E00026E02C001F001301200026E3F0EC71660
:10128E00000EC66E000EC56E0250C6120150C71279
:10129E0093829380C68A1200C5CF01F01F0E0116ED
:1012AE00D8A4FAD7C7A41200F7D70F0E956E000E6A
:0512BE008C6E120040DF
:020000040020DA
:08000000FFFFFFFFFFFFFFFF00
:020000040030CA
:0E00000000051F1FFF8385FF0FC00FE00F409C
:00000001FF
