:0400000019EF0AF0FA
:1008000000010000000A00000064000000E803008E
:100810000010270000A086010040420F008096983B
:100820000000E1F50500CA9A3B202020202020206E
:1008300020202020202020202020202020202020B8
:1008400020005465636C65652067656E6465722081
:100850003020482031204D005465636C656520656B
:100860007374617475726128636D29005465636CDB
:100870006565207065736F20656E206B6700256C61
:10088000752C256C752C256C752C256C75005465A4
:0B089000636C65652065646164000016
:10089C00000E0001C06F000EC16F000EC26F000E83
:1008AC00C36F000E0001C46F000EC56F000EC66F43
:1008BC00000EC76F000E0001C86F000EC96F000E4E
:1008CC00CA6F000ECB6F000E0001CC6F000ECD6F07
:1008DC00000ECE6F000ECF6F000E0001B06F000E39
:1008EC00B16F000EB26F000EB36F000E0001B46F4B
:1008FC00000EB56F000EB66F000EB76F000E000144
:10090C00B86F000EB96F000EBA6F000EBB6F000E01
:10091C000001BC6F000EBD6F000EBE6F000EBF6FEE
:10092C00010E0C6E010E0D6E3B50E1EC08F0290E21
:10093C000A6E080E0B6E3B5051EC09F0020E0C6E59
:10094C00010E0D6E3B50E1EC08F0290E0A6E080EFC
:10095C000B6E3B5051EC09F0010E0C6E010E0D6E3E
:10096C003B50E1EC08F08E0E0A6E080E0B6E3B50FD
:10097C0051EC09F0F2EC07F00FC0C0F010C0C1F060
:10098C0011C0C2F012C0C3F0020E0C6E010E0D6E3F
:10099C003B50E1EC08F0290E0A6E080E0B6E3B5032
:1009AC0051EC09F0010E0C6E010E0D6E3B50E1EC9A
:1009BC0008F06C0E0A6E080E0B6E3B5051EC09F0F1
:1009CC00F2EC07F00FC0C8F010C0C9F011C0CAF0AB
:1009DC0012C0CBF0020E0C6E010E0D6E3B50E1EC12
:1009EC0008F0290E0A6E080E0B6E3B5051EC09F004
:1009FC00020E0C6E010E0D6E3B50E1EC08F0290E50
:100A0C000A6E080E0B6E3B5051EC09F0010E0C6E89
:100A1C00010E0D6E3B50E1EC08F0580E0A6E080EFC
:100A2C000B6E3B5051EC09F0F2EC07F00FC0C4F028
:100A3C0010C0C5F011C0C6F012C0C7F0020E0C6E8B
:100A4C00010E0D6E3B50E1EC08F0290E0A6E080EFB
:100A5C000B6E3B5051EC09F0020E0C6E010E0D6E3C
:100A6C003B50E1EC08F0290E0A6E080E0B6E3B5061
:100A7C0051EC09F0010E0C6E010E0D6E3B50E1ECC9
:100A8C0008F0420E0A6E080E0B6E3B5051EC09F04A
:100A9C00F2EC07F00FC0CCF010C0CDF011C0CEF0CE
:100AAC0012C0CFF0020E0C6E010E0D6E3B50E1EC3D
:100ABC0008F0290E0A6E080E0B6E3B5051EC09F033
:100ACC00600E176E000E186E7E0E196E080E1A6EE2
:100ADC00C0C01BF0C1C01CF0C2C01DF0C3C01EF0D2
:100AEC00C8C01FF0C9C020F0CAC021F0CBC022F092
:100AFC00C4C023F0C5C024F0C6C025F0C7C026F082
:100B0C00CCC027F0CDC028F0CEC029F0CFC02AF041
:100B1C009FEC05F0020E0C6E010E0D6E3B50E1ECDD
:100B2C0008F0600E0A6E000E0B6E3B5051EC09F093
:100B3C0012001B0E346E000E356EBAD0250E361810
:100B4C00D8B409D017C0D9FF18C0DAFF36C0DFFF00
:100B5C00174A182AADD0000E2D6E05D02D8803D063
:100B6C00C00E2D1214D019C0F6FF1AC0F7FF194A87
:100B7C001A2A0800F5CF36F03650000AD8B4A4D0A3
:100B8C006C0AD8B4EBD7190AD8B4EAD791D02DA8EF
:100B9C000ED034C0D9FF35C0DAFFDECF30F0DECF57
:100BAC0031F0DECF32F0DECF33F0040E0FD034C094
:100BBC00D9FF35C0DAFFDECF2BF0DDCF2CF02BC008
:100BCC0030F02CC031F0326A336A020E3426000E3B
:100BDC003522010E366E0A0E3618D8B418D036509F
:100BEC00040D010EF324F66E080EF420F76E0900C6
:100BFC00F550305C0900F55031580900F550325869
:100C0C000900F5503358D8A002D0362AE4D7365014
:100C1C002E6E2F6A2EBE2F0643D02EC02BF02FC067
:100C2C002CF0D8902B362C36D8902B362C36010E37
:100C3C002B24F66E080E2C20F76E0900F5CF05F06C
:100C4C000900F5CF06F00900F5CF07F00A00F5CF43
:100C5C0008F030C001F031C002F032C003F033C0F4
:100C6C0004F0A0EC08F001C00EF002C00FF003C0BD
:100C7C0010F004C011F00A0E126E000E136E000E6E
:100C8C00146E000E156E1EEC09F00E50300F366E01
:100C9C0017C0D9FF18C0DAFF36C0DFFF174A182A71
:100CAC002E06D8A02F062E28B8E12F28D8A4B5D709
:100CBC0019C0F6FF1AC0F7FF194A1A2A0800F5CF17
:100CCC0036F03650D8A43AD717C0D9FF18C0DAFF7F
:100CDC00000EDF6E12002C0E096E8FD039043A1004
:100CEC00D8A404D0370E096E09501200020E391820
:100CFC003A10D8A404D0380E096E09501200030E15
:100D0C0039183A10D8A404D0390E096E09501200C3
:100D1C00040E39183A10D8A404D02F0E096E0950BD
:100D2C001200050E39183A10D8A404D0340E096EEE
:100D3C0009501200060E39183A10D8A404D0350EFA
:100D4C00096E09501200070E39183A10D8A404D0B5
:100D5C00360E096E09501200080E39183A10D8A434
:100D6C0004D02A0E096E09501200090E39183A10D7
:100D7C00D8A404D0310E096E095012000A0E39188D
:100D8C003A10D8A404D0320E096E095012000B0E82
:100D9C0039183A10D8A404D0330E096E0950120039
:100DAC000C0E39183A10D8A404D02D0E096E095027
:100DBC0012000D0E39183A10D8A404D0640E096E26
:100DCC00095012000E0E39183A10D8A404D0300E67
:100DDC00096E095012000F0E39183A10D8A404D01D
:100DEC003D0E096E09501200100E39183A10D8A495
:100DFC0004D02B0E096E095012000DEC07F00150B7
:100E0C00096E2C0E0918D8A469D709501200000ECF
:100E1C00066E000E056E000E3A6E000E396E000E58
:100E2C00086E000E076E08BE06D0085065E1040E71
:100E3C00075CD8B061D007C003F0100E046E032A13
:100E4C0002D0D8900436032EFCD704508C6E83A0AD
:100E5C0010D0E40E00D000D0E82EFCD700D000D08B
:100E6C0083B0FED7394A3A2A39C001F03AC002F0B1
:100E7C00120083A212D0E40E00D000D0E82EFCD7D2
:100E8C0000D000D083B2FED7020E3926000E3A22D3
:100E9C0039C001F03AC002F0120083A412D0E40E63
:100EAC0000D000D0E82EFCD700D000D083B4FED701
:100EBC00030E3926000E3A2239C001F03AC002F076
:100ECC00120083A612D0E40E00D000D0E82EFCD77E
:100EDC0000D000D083B6FED7040E3926000E3A227D
:100EEC0039C001F03AC002F01200040E3926000E8F
:100EFC003A22074A082A97D705500610D8A41200A0
:100F0C00000E3A6E000E396E120002D0074A082A03
:100F1C0007C0D9FF08C0DAFF200EDE18D8B4F6D708
:100F2C0007C0D9FF08C0DAFF090EDE18D8B4EED717
:100F3C00000E0D6E000E0C6E000E0B6E07C0D9FF6E
:100F4C0008C0DAFF2D0EDE18D8A402D00B2A24D04C
:100F5C0007C0D9FF08C0DAFF2B0EDE18D8A41ED0AC
:100F6C001BD00CC001F00DC002F0000E046E0A0E76
:100F7C00036E2FEC0AF007C0D9FF08C0DAFFDF5070
:100F8C00096E0A6A0150092602500A22D00E092461
:100F9C000C6EFF0E0A200D6E074A082A07C0D9FFF7
:100FAC0008C0DAFFDF5052EC0AF0D8B0DAD70B5099
:100FBC00D8B40DD00CC009F00DC00AF0091E0A1EE1
:100FCC00094A0A2A09C007F00AC008F012000CC02E
:100FDC0007F00DC008F01200000E2C6E000E2B6EE8
:100FEC00000E2F6E000E2E6E2F500FE10A0E2E5C8F
:100FFC00D8B00BD0130E2E24D96E000E2F20DA6E23
:10100C00000EDF6E2E4A2F2AEFD771EC06F02D6EF4
:10101C002B0E2D18D8B419D0130E2B24D96E000E0C
:10102C002C20DA6E2DC0DFFF020E0C6E010E0D6E41
:10103C003B50E1EC08F0130E0A6E000E0B6E3B50A9
:10104C0051EC09F02B4A2C2AE0D7020E0C6E010E43
:10105C000D6E3B50E1EC08F0130E0A6E000E0B6E99
:10106C003B5051EC09F0130E076E000E086E8BEC22
:10107C0007F007C027F008C028F0000E28BEFF0EAE
:10108C00296E2A6E27C00FF028C010F029C011F06D
:10109C002AC012F012000D6E340E0C6EF20EE82EF9
:1010AC00FED70C2EFCD7300E076E000E086E0D50BE
:1010BC00B0EC09F00D0E0C6EFC0EE82EFED70C2ECB
:1010CC00FCD7300E076E000E086E0D50B0EC09F018
:1010DC00300E076E000E086E0D50B0EC09F0200EAD
:1010EC00076E000E086E0D50B0EC09F0280E076E5E
:1010FC00010E086E0D50B0EC09F0080E076E010ED3
:10110C00086E0D50B0EC09F0010E076E010E086E62
:10111C000D50B0EC09F0060E076E010E086E0D5066
:10112C00B0EC09F00C0E076E010E086E0D50B0EC11
:10113C0009F01200000E096E000E0A6E000E0B6E06
:10114C00000E0C6E0550061007100810D8B42AD0EB
:10115C00010E0D6E06D0D8900536063607360836C9
:10116C000D2A08AEF8D7D89009360A360B360C364D
:10117C000550015C0650025807500358085004589B
:10118C00D8A009D00550015E0650025A0750035AE8
:10119C000850045A0980D8900832073206320532BA
:1011AC000D2EE1D709C001F00AC002F00BC003F00C
:1011BC000CC004F012000E6E2DD00D507F0F076E78
:1011CC00010E086E0E50B0EC09F012000D50BF0F5E
:1011DC00076E010E086E0E50B0EC09F012000D50A7
:1011EC00930F076E010E086E0E50B0EC09F0120052
:1011FC000D50D30F076E010E086E0E50B0EC09F0B7
:10120C0012000D507F0F076E010E086E0E50B0ECE1
:10121C0009F012000C50010AD8B4CFD7030AD8B485
:10122C00D5D7010AD8B4DBD7070AD8B4E1D7E9D7A8
:10123C001250131014101510D8B424D0010E166EC1
:10124C0006D0D8901236133614361536162A15AE2B
:10125C00F8D712500E5C13500F58145010581550EC
:10126C001158D8A008D012500E5E13500F5A1450BB
:10127C00105A1550115AD8901532143213321232AA
:10128C00162EE7D70EC00EF00FC00FF010C010F0E6
:10129C0011C011F012000E6E000E0D6E000E0C6ED1
:1012AC0016D00AC0F6FF0BC0F7FFF86A070EF764FA
:1012BC0003D00800F55005D0F6CFE9FFF7CFEAFFD1
:1012CC00EF50076E0E50DEEC09F00A4A0B2A0AC0EA
:1012DC00F6FF0BC0F7FFF86A070EF76403D008009F
:1012EC00F55005D0F6CFE9FFF7CFEAFFEF50000934
:1012FC00D8B41200D6D7026E02C0C9FFC6AE02D057
:10130C00FF0E1200C6500F0B080AD8B40FD0C650EF
:10131C000F0B0B0AD8B40AD0C6889EA6FED7C7A45A
:10132C00C7B002D0FE0E1200000E1200C6500F0BFA
:10133C00080AD8B405D0C6500F0B0B0AD8A412005B
:10134C00C7B0FED770EC0AF0C5AC02D0FE0E12008E
:10135C00000E12000A6E0750F00B08090B6E0B50B2
:10136C000409036E0A5042EC0AF00B50FB0B036E9F
:10137C000A5042EC0AF00850D8B411D00738F00BE0
:10138C00F00B08090B6E0B500409036E0A5042EC6B
:10139C000AF00B50FB0B036E0A5042EC0AF0060EDF
:1013AC00096E300EE82EFED7092EFCD700D01200A5
:1013BC00086E0750F00B0909096E09500409036EF9
:1013CC00085042EC0AF00950FB0B036E085042EC3B
:1013DC000AF00738F00BF00B0909096E09500409E3
:1013EC00036E085042EC0AF00950FB0B036E0850D8
:1013FC0042EC0AF01200800E016E080E61EC0AF04D
:10140C003B5051EC08F079EC0AF0000E386E000EEF
:10141C00376E010E076E010E086E3B50B0EC09F0F2
:10142C004EEC04F0FDD7FC0EF66E140EF76E000EAB
:10143C00F86E0900F5CF3BF001EE00F0500EEE6AAD
:10144C00E806FDE13A6A396A000EF86E000101EF18
:10145C000AF001500302F3CF05F0F4CF06F001506F
:10146C000402F350062602500302F350062605C070
:10147C0001F006C002F01200066EC580C5B0FED7A2
:10148C00065081EC09F0056E035081EC09F0056EF5
:10149C00C584C5A41200FDD7036E000E026E3A0E71
:1014AC00036005D02F0E036402D0010E026E02C041
:1014BC0001F001301200026E3F0EC716000EC66E10
:1014CC00000EC56E0250C6120150C7129382938053
:1014DC00C68A1200C5CF01F01F0E0116D8A4FAD788
:1014EC00C7A41200F7D70F0E956E000E8C6E12006B
:0114FC0040AF
:020000040020DA
:08000000FFFFFFFFFFFFFFFF00
:020000040030CA
:0E00000000051F1FFF8385FF0FC00FE00F409C
:00000001FF
