:04000000D0EF09F044
:1008000000010000000A00000064000000E803008E
:100810000010270000A086010040420F008096983B
:100820000000E1F50500CA9A3B202020202020206E
:1008300020202020202020202020202020202020B8
:1008400020005465636C656520657374617475720E
:100850006128636D29005465636C6565207065735C
:100860006F20656E206B67005465636C656520655D
:1008700064616400256C752C256C752C256C7500E5
:010880000077
:10088200000E0001C46F000EC56F000EC66F000E91
:10089200C76F000E0001C86F000EC96F000ECA6F4D
:1008A200000ECB6F000E0001CC6F000ECD6F000E5C
:1008B200CE6F000ECF6F000E0001B06F000EB16F51
:1008C200000EB26F000EB36F000E0001B46F000E87
:1008D200B56F000EB66F000EB76F000E0001B86F55
:1008E200000EB96F000EBA6F000EBB6F000E000152
:1008F200BC6F000EBD6F000EBE6F000EBF6F000E0C
:100902000001C06F000EC16F000EC26F000EC36FF8
:10091200010E0C6E010E0D6E375098EC08F0290E88
:100922000A6E080E0B6E375008EC09F0020E0C6EC0
:10093200010E0D6E375098EC08F0290E0A6E080E63
:100942000B6E375008EC09F0010E0C6E010E0D6EA5
:10095200375098EC08F0680E0A6E080E0B6E37508E
:1009620008EC09F0A9EC07F00FC0C4F010C0C5F004
:1009720011C0C6F012C0C7F0020E0C6E010E0D6E51
:10098200375098EC08F0290E0A6E080E0B6E37509D
:1009920008EC09F0010E0C6E010E0D6E375098EC4A
:1009A20008F0560E0A6E080E0B6E375008EC09F06E
:1009B200A9EC07F00FC0CCF010C0CDF011C0CEF002
:1009C20012C0CFF0020E0C6E010E0D6E375098EC75
:1009D20008F0290E0A6E080E0B6E375008EC09F06B
:1009E200020E0C6E010E0D6E375098EC08F0290EB7
:1009F2000A6E080E0B6E375008EC09F0010E0C6EF1
:100A0200010E0D6E375098EC08F0420E0A6E080E79
:100A12000B6E375008EC09F0A9EC07F00FC0C8F0D4
:100A220010C0C9F011C0CAF012C0CBF0020E0C6E99
:100A3200010E0D6E375098EC08F0290E0A6E080E62
:100A42000B6E375008EC09F0600E176E000E186E30
:100A5200740E196E080E1A6EC4C01BF0C5C01CF0CD
:100A6200C6C01DF0C7C01EF0CCC01FF0CDC020F024
:100A7200CEC021F0CFC022F0C8C023F0C9C024F0FC
:100A8200CAC025F0CBC026F056EC05F0020E0C6E63
:100A9200010E0D6E375098EC08F0600E0A6E000ED3
:100AA2000B6E375008EC09F012001B0E306E000E70
:100AB200316EBAD0250E3218D8B409D017C0D9FF7A
:100AC20018C0DAFF32C0DFFF174A182AADD0000E75
:100AD200296E05D0298803D0C00E291214D019C05E
:100AE200F6FF1AC0F7FF194A1A2A0800F5CF32F0AA
:100AF2003250000AD8B4A4D06C0AD8B4EBD7190A81
:100B0200D8B4EAD791D029A80ED030C0D9FF31C0CD
:100B1200DAFFDECF2CF0DECF2DF0DECF2EF0DECFEF
:100B22002FF0040E0FD030C0D9FF31C0DAFFDECF74
:100B320027F0DDCF28F027C02CF028C02DF02E6A38
:100B42002F6A020E3026000E3122010E326E0A0E7C
:100B52003218D8B418D03250040D010EF324F66EB8
:100B6200080EF420F76E0900F5502C5C0900F550D0
:100B72002D580900F5502E580900F5502F58D8A0CD
:100B820002D0322AE4D732502A6E2B6A2ABE2B06B2
:100B920043D02AC027F02BC028F0D8902736283619
:100BA200D89027362836010E2724F66E080E282004
:100BB200F76E0900F5CF05F00900F5CF06F0090040
:100BC200F5CF07F00A00F5CF08F02CC001F02DC0D8
:100BD20002F02EC003F02FC004F057EC08F001C061
:100BE2000EF002C00FF003C010F004C011F00A0EA4
:100BF200126E000E136E000E146E000E156ED5EC02
:100C020008F00E50300F326E17C0D9FF18C0DAFF4D
:100C120032C0DFFF174A182A2A06D8A02B062A2834
:100C2200B8E12B28D8A4B5D719C0F6FF1AC0F7FF30
:100C3200194A1A2A0800F5CF32F03250D8A43AD70E
:100C420017C0D9FF18C0DAFF000EDF6E12002C0E9B
:100C5200096E8FD035043610D8A404D0370E096E31
:100C620009501200020E35183610D8A404D0380EDE
:100C7200096E09501200030E35183610D8A404D09C
:100C8200390E096E09501200040E35183610D8A418
:100C920004D02F0E096E09501200050E35183610B9
:100CA200D8A404D0340E096E09501200060E35186D
:100CB2003610D8A404D0350E096E09501200070E62
:100CC20035183610D8A404D0360E096E0950120019
:100CD200080E35183610D8A404D02A0E096E095011
:100CE2001200090E35183610D8A404D0310E096E40
:100CF200095012000A0E35183610D8A404D0320E4C
:100D0200096E095012000B0E35183610D8A404D003
:100D1200330E096E095012000C0E35183610D8A485
:100D220004D02D0E096E095012000D0E3518361022
:100D3200D8A404D0640E096E095012000E0E3518A4
:100D42003610D8A404D0300E096E095012000F0ECE
:100D520035183610D8A404D03D0E096E0950120081
:100D6200100E35183610D8A404D02B0E096E095077
:100D72001200C4EC06F00150096E2C0E0918D8A41A
:100D820069D709501200000E066E000E056E000EA5
:100D9200366E000E356E000E086E000E076E08BE2F
:100DA20006D0085065E1040E075CD8B061D007C0D8
:100DB20003F0100E046E032A02D0D8900436032EDC
:100DC200FCD704508C6E83A010D0E40E00D000D06B
:100DD200E82EFCD700D000D083B0FED7354A362AA1
:100DE20035C001F036C002F0120083A212D0E40E28
:100DF20000D000D0E82EFCD700D000D083B2FED7BE
:100E0200020E3526000E362235C001F036C002F041
:100E1200120083A412D0E40E00D000D0E82EFCD73A
:100E220000D000D083B4FED7030E3526000E362242
:100E320035C001F036C002F0120083A612D0E40ED3
:100E420000D000D0E82EFCD700D000D083B6FED769
:100E5200040E3526000E362235C001F036C002F0EF
:100E62001200040E3526000E3622074A082A97D7AA
:100E720005500610D8A41200000E366E000E356E14
:100E8200120002D0074A082A07C0D9FF08C0DAFFB9
:100E9200200EDE18D8B4F6D707C0D9FF08C0DAFF93
:100EA200090EDE18D8B4EED7000E0D6E000E0C6ED1
:100EB200000E0B6E07C0D9FF08C0DAFF2D0EDE1838
:100EC200D8A402D00B2A24D007C0D9FF08C0DAFF69
:100ED2002B0EDE18D8A41ED01BD00CC001F00DC002
:100EE20002F0000E046E0A0E036EE6EC09F007C073
:100EF200D9FF08C0DAFFDF50096E0A6A01500926DD
:100F020002500A22D00E09240C6EFF0E0A200D6E2A
:100F1200074A082A07C0D9FF08C0DAFFDF5009ECE8
:100F22000AF0D8B0DAD70B50D8B40DD00CC009F003
:100F32000DC00AF0091E0A1E094A0A2A09C007F052
:100F42000AC008F012000CC007F00DC008F0120031
:100F5200000E2C6E000E2B6E000E2F6E000E2E6EEB
:100F62002F500FE10A0E2E5CD8B00BD0130E2E2498
:100F7200D96E000E2F20DA6E000EDF6E2E4A2F2A57
:100F8200EFD728EC06F02D6E2B0E2D18D8B419D001
:100F9200130E2B24D96E000E2C20DA6E2DC0DFFF2B
:100FA200020E0C6E010E0D6E375098EC08F0130E07
:100FB2000A6E000E0B6E375008EC09F02B4A2C2AF1
:100FC200E0D7020E0C6E010E0D6E375098EC08F051
:100FD200130E0A6E000E0B6E375008EC09F0130E5A
:100FE200076E000E086E42EC07F007C027F008C03B
:100FF20028F0000E28BEFF0E296E2A6E27C00FF0C1
:1010020028C010F029C011F02AC012F012000D6E93
:10101200340E0C6EF20EE82EFED70C2EFCD7300EDC
:10102200076E000E086E0D5067EC09F00D0E0C6E87
:10103200FC0EE82EFED70C2EFCD7300E076E000EEB
:10104200086E0D5067EC09F0300E076E000E086E48
:101052000D5067EC09F0200E076E000E086E0D5061
:1010620067EC09F0280E076E010E086E0D5067EC52
:1010720009F0080E076E010E086E0D5067EC09F0BC
:10108200010E076E010E086E0D5067EC09F0060E98
:10109200076E010E086E0D5067EC09F00C0E076E1C
:1010A200010E086E0D5067EC09F01200000E096E79
:1010B200000E0A6E000E0B6E000E0C6E055006102E
:1010C20007100810D8B42AD0010E0D6E06D0D890A1
:1010D20005360636073608360D2A08AEF8D7D890F8
:1010E20009360A360B360C360550015C065002589A
:1010F2000750035808500458D8A009D00550015E83
:101102000650025A0750035A0850045A0980D890D0
:1011120008320732063205320D2EE1D709C001F03E
:101122000AC002F00BC003F00CC004F012000E6EF5
:101132002DD00D507F0F076E010E086E0E5067EC1A
:1011420009F012000D50BF0F076E010E086E0E500F
:1011520067EC09F012000D50930F076E010E086E36
:101162000E5067EC09F012000D50D30F076E010EFE
:10117200086E0E5067EC09F012000D507F0F076EDB
:10118200010E086E0E5067EC09F012000C50010AB5
:10119200D8B4CFD7030AD8B4D5D7010AD8B4DBD78D
:1011A200070AD8B4E1D7E9D712501310141015105A
:1011B200D8B424D0010E166E06D0D890123613364B
:1011C20014361536162A15AEF8D712500E5C135087
:1011D2000F581450105815501158D8A008D012505A
:1011E2000E5E13500F5A1450105A1550115AD890BF
:1011F2001532143213321232162EE7D70EC00EF009
:101202000FC00FF010C010F011C011F012000E6EDE
:10121200000E0D6E000E0C6E16D00AC0F6FF0BC04B
:10122200F7FFF86A070EF76403D00800F55005D0FF
:10123200F6CFE9FFF7CFEAFFEF50076E0E5095ECBD
:1012420009F00A4A0B2A0AC0F6FF0BC0F7FFF86A38
:10125200070EF76403D00800F55005D0F6CFE9FF7A
:10126200F7CFEAFFEF500009D8B41200D6D7026ECA
:1012720002C0C9FFC6AE02D0FF0E1200C6500F0B4D
:10128200080AD8B40FD0C6500F0B0B0AD8B40AD034
:10129200C6889EA6FED7C7A4C7B002D0FE0E120013
:1012A200000E1200C6500F0B080AD8B405D0C65063
:1012B2000F0B0B0AD8A41200C7B0FED727EC0AF016
:1012C200C5AC02D0FE0E1200000E12000A6E0750CC
:1012D200F00B08090B6E0B500409036E0A50F9EC6F
:1012E20009F00B50FB0B036E0A50F9EC09F00850A1
:1012F200D8B411D00738F00BF00B08090B6E0B5065
:101302000409036E0A50F9EC09F00B50FB0B036E53
:101312000A50F9EC09F0060E096E300EE82EFED7DF
:10132200092EFCD700D01200086E0750F00B0909F5
:10133200096E09500409036E0850F9EC09F00950CE
:10134200FB0B036E0850F9EC09F00738F00BF00BB9
:101352000909096E09500409036E0850F9EC09F0F5
:101362000950FB0B036E0850F9EC09F01200800ED5
:10137200016E080E18EC0AF0375008EC08F030EC59
:101382000AF0000E346E000E336E010E076E010E6F
:10139200086E375067EC09F041EC04F0FDD76A0E95
:1013A200F66E140EF76E000EF86E0900F5CF37F0E8
:1013B20001EE00F0500EEE6AE806FDE1366A356A8B
:1013C200000EF86E0001B8EF09F001500302F3CFEE
:1013D20005F0F4CF06F001500402F3500626025045
:1013E2000302F350062605C001F006C002F0120007
:1013F200066EC580C5B0FED7065038EC09F0056E02
:10140200035038EC09F0056EC584C5A41200FDD75F
:10141200036E000E026E3A0E036005D02F0E0364B7
:1014220002D0010E026E02C001F001301200026E03
:101432003F0EC716000EC66E000EC56E0250C612D3
:101442000150C71293829380C68A1200C5CF01F061
:101452001F0E0116D8A4FAD7C7A41200F7D70F0E91
:09146200956E000E8C6E12004024
:020000040020DA
:08000000FFFFFFFFFFFFFFFF00
:020000040030CA
:0E00000000051F1FFF8385FF0FC00FE00F409C
:00000001FF
