:040000008BEF09F089
:1008000000010000000A00000064000000E803008E
:100810000010270000A086010040420F008096983B
:100820000000E1F50500CA9A3B202020202020206E
:1008300020202020202020202020202020202020B8
:100840002000656461643A20256C752C2070657306
:100850006F3A20256C75005465636C65652065648E
:100860006164005465636C6565207065736F00009A
:10087000000E0001C86F000EC96F000ECA6F000E97
:10088000CB6F000E0001B06F000EB16F000EB26FA3
:10089000000EB36F000E0001CC6F000ECD6F000E86
:1008A000CE6F000ECF6F000E0001B46F000EB56F5B
:1008B000000EB66F000EB76F000E0001B86F000E8D
:1008C000B96F000EBA6F000EBB6F000E0001BC6F57
:1008D000000EBD6F000EBE6F000EBF6F000E000158
:1008E000C06F000EC16F000EC26F000EC36F000E0E
:1008F0000001C46F000EC56F000EC66F000EC76FFB
:10090000010E0C6E010E0D6E345053EC08F0290EE2
:100910000A6E080E0B6E3450C3EC08F0020E0C6E1B
:10092000010E0D6E345053EC08F0290E0A6E080EBD
:100930000B6E3450C3EC08F0010E0C6E010E0D6E00
:10094000345053EC08F0570E0A6E080E0B6E3450FC
:10095000C3EC08F064EC07F00FC0C8F010C0C9F099
:1009600011C0CAF012C0CBF0020E0C6E010E0D6E5B
:10097000345053EC08F0290E0A6E080E0B6E3450FA
:10098000C3EC08F0010E0C6E010E0D6E345053ECEA
:1009900008F0630E0A6E080E0B6E3450C3EC08F0BC
:1009A00064EC07F00FC0CCF010C0CDF011C0CEF059
:1009B00012C0CFF0020E0C6E010E0D6E345053ECCF
:1009C00008F0290E0A6E080E0B6E3450C3EC08F0C6
:1009D000600E176E000E186E420E196E080E1A6E1B
:1009E000C8C01BF0C9C01CF0CAC01DF0CBC01EF0AF
:1009F000CCC01FF0CDC020F0CEC021F0CFC022F07F
:100A000011EC05F0020E0C6E010E0D6E345053EC1D
:100A100008F0600E0A6E000E0B6E3450C3EC08F046
:100A200012001B0E2C6E000E2D6EBAD0250E2E1845
:100A3000D8B409D017C0D9FF18C0DAFF2EC0DFFF25
:100A4000174A182AADD0000E256E05D0258803D090
:100A5000C00E251214D019C0F6FF1AC0F7FF194AAC
:100A60001A2A0800F5CF2EF02E50000AD8B4A4D0D0
:100A70006C0AD8B4EBD7190AD8B4EAD791D025A814
:100A80000ED02CC0D9FF2DC0DAFFDECF28F0DECF8C
:100A900029F0DECF2AF0DECF2BF0040E0FD02CC0D1
:100AA000D9FF2DC0DAFFDECF23F0DDCF24F023C045
:100AB00028F024C029F02A6A2B6A020E2C26000E88
:100AC0002D22010E2E6E0A0E2E18D8B418D02E50DC
:100AD000040D010EF324F66E080EF420F76E0900E3
:100AE000F550285C0900F55029580900F5502A589E
:100AF0000900F5502B58D8A002D02E2AE4D72E504A
:100B0000266E276A26BE270643D026C023F027C0BC
:100B100024F0D89023362436D89023362436010E7C
:100B20002324F66E080E2420F76E0900F5CF05F099
:100B30000900F5CF06F00900F5CF07F00A00F5CF60
:100B400008F028C001F029C002F02AC003F02BC031
:100B500004F012EC08F001C00EF002C00FF003C068
:100B600010F004C011F00A0E126E000E136E000E8B
:100B7000146E000E156E90EC08F00E50300F2E6EB5
:100B800017C0D9FF18C0DAFF2EC0DFFF174A182A96
:100B90002606D8A027062628B8E12728D8A4B5D746
:100BA00019C0F6FF1AC0F7FF194A1A2A0800F5CF34
:100BB0002EF02E50D8A43AD717C0D9FF18C0DAFFAC
:100BC000000EDF6E12002C0E096E8FD0320433102F
:100BD000D8A404D0370E096E09501200020E321844
:100BE0003310D8A404D0380E096E09501200030E39
:100BF00032183310D8A404D0390E096E09501200EF
:100C0000040E32183310D8A404D02F0E096E0950E8
:100C10001200050E32183310D8A404D0340E096E19
:100C200009501200060E32183310D8A404D0350E25
:100C3000096E09501200070E32183310D8A404D0E0
:100C4000360E096E09501200080E32183310D8A45F
:100C500004D02A0E096E09501200090E3218331002
:100C6000D8A404D0310E096E095012000A0E3218B1
:100C70003310D8A404D0320E096E095012000B0EA6
:100C800032183310D8A404D0330E096E0950120064
:100C90000C0E32183310D8A404D02D0E096E095052
:100CA00012000D0E32183310D8A404D0640E096E51
:100CB000095012000E0E32183310D8A404D0300E92
:100CC000096E095012000F0E32183310D8A404D048
:100CD0003D0E096E09501200100E32183310D8A4C0
:100CE00004D02B0E096E095012007FEC06F0015063
:100CF000096E2C0E0918D8A469D709501200000EED
:100D0000066E000E056E000E336E000E326E000E83
:100D1000086E000E076E08BE06D0085065E1040E8E
:100D2000075CD8B061D007C003F0100E046E032A30
:100D300002D0D8900436032EFCD704508C6E83A0CA
:100D400010D0E40E00D000D0E82EFCD700D000D0A8
:100D500083B0FED7324A332A32C001F033C002F0EA
:100D6000120083A212D0E40E00D000D0E82EFCD7EF
:100D700000D000D083B2FED7020E3226000E3322FE
:100D800032C001F033C002F0120083A412D0E40E8E
:100D900000D000D0E82EFCD700D000D083B4FED71E
:100DA000030E3226000E332232C001F033C002F0AF
:100DB000120083A612D0E40E00D000D0E82EFCD79B
:100DC00000D000D083B6FED7040E3226000E3322A8
:100DD00032C001F033C002F01200040E3226000EC1
:100DE0003322074A082A97D705500610D8A41200C4
:100DF000000E336E000E326E120002D0074A082A2F
:100E000007C0D9FF08C0DAFF200EDE18D8B4F6D725
:100E100007C0D9FF08C0DAFF090EDE18D8B4EED734
:100E2000000E0D6E000E0C6E000E0B6E07C0D9FF8B
:100E300008C0DAFF2D0EDE18D8A402D00B2A24D069
:100E400007C0D9FF08C0DAFF2B0EDE18D8A41ED0C9
:100E50001BD00CC001F00DC002F0000E046E0A0E93
:100E6000036EA1EC09F007C0D9FF08C0DAFFDF501C
:100E7000096E0A6A0150092602500A22D00E09247E
:100E80000C6EFF0E0A200D6E074A082A07C0D9FF14
:100E900008C0DAFFDF50C4EC09F0D8B0DAD70B5045
:100EA000D8B40DD00CC009F00DC00AF0091E0A1EFE
:100EB000094A0A2A09C007F00AC008F012000CC04B
:100EC00007F00DC008F01200000E2C6E000E2B6E05
:100ED000000E2F6E000E2E6E2F500FE10A0E2E5CAC
:100EE000D8B00BD0130E2E24D96E000E2F20DA6E40
:100EF000000EDF6E2E4A2F2AEFD7E3EC05F02D6EA1
:100F00002B0E2D18D8B419D0130E2B24D96E000E29
:100F10002C20DA6E2DC0DFFF020E0C6E010E0D6E5E
:100F2000345053EC08F0130E0A6E000E0B6E345062
:100F3000C3EC08F02B4A2C2AE0D7020E0C6E010EEF
:100F40000D6E345053EC08F0130E0A6E000E0B6E4B
:100F50003450C3EC08F0130E076E000E086EFDEC63
:100F600006F007C027F008C028F0000E28BEFF0ECC
:100F7000296E2A6E27C00FF028C010F029C011F08A
:100F80002AC012F012000D6E340E0C6EF20EE82E16
:100F9000FED70C2EFCD7300E076E000E086E0D50DB
:100FA00022EC09F00D0E0C6EFC0EE82EFED70C2E76
:100FB000FCD7300E076E000E086E0D5022EC09F0C3
:100FC000300E076E000E086E0D5022EC09F0200E58
:100FD000076E000E086E0D5022EC09F0280E076E09
:100FE000010E086E0D5022EC09F0080E076E010E7E
:100FF000086E0D5022EC09F0010E076E010E086E0E
:101000000D5022EC09F0060E076E010E086E0D5011
:1010100022EC09F00C0E076E010E086E0D5022EC4A
:1010200009F01200000E096E000E0A6E000E0B6E23
:10103000000E0C6E0550061007100810D8B42AD008
:10104000010E0D6E06D0D8900536063607360836E6
:101050000D2A08AEF8D7D89009360A360B360C366A
:101060000550015C065002580750035808500458B8
:10107000D8A009D00550015E0650025A0750035A05
:101080000850045A0980D8900832073206320532D7
:101090000D2EE1D709C001F00AC002F00BC003F029
:1010A0000CC004F012000E6E2DD00D507F0F076E95
:1010B000010E086E0E5022EC09F012000D50BF0F09
:1010C000076E010E086E0E5022EC09F012000D5052
:1010D000930F076E010E086E0E5022EC09F01200FD
:1010E0000D50D30F076E010E086E0E5022EC09F062
:1010F00012000D507F0F076E010E086E0E5022EC8D
:1011000009F012000C50010AD8B4CFD7030AD8B4A2
:10111000D5D7010AD8B4DBD7070AD8B4E1D7E9D7C5
:101120001250131014101510D8B424D0010E166EDE
:1011300006D0D8901236133614361536162A15AE48
:10114000F8D712500E5C13500F5814501058155009
:101150001158D8A008D012500E5E13500F5A1450D8
:10116000105A1550115AD8901532143213321232C7
:10117000162EE7D70EC00EF00FC00FF010C010F003
:1011800011C011F012000E6E000E0D6E000E0C6EEE
:1011900016D00AC0F6FF0BC0F7FFF86A070EF76417
:1011A00003D00800F55005D0F6CFE9FFF7CFEAFFEE
:1011B000EF50076E0E5050EC09F00A4A0B2A0AC095
:1011C000F6FF0BC0F7FFF86A070EF76403D00800BC
:1011D000F55005D0F6CFE9FFF7CFEAFFEF50000951
:1011E000D8B41200D6D7026E02C0C9FFC6AE02D074
:1011F000FF0E1200C6500F0B080AD8B40FD0C6500D
:101200000F0B0B0AD8B40AD0C6889EA6FED7C7A477
:10121000C7B002D0FE0E1200000E1200C6500F0B17
:10122000080AD8B405D0C6500F0B0B0AD8A4120078
:10123000C7B0FED7E2EC09F0C5AC02D0FE0E12003A
:10124000000E12000A6E0750F00B08090B6E0B50CF
:101250000409036E0A50B4EC09F00B50FB0B036E4B
:101260000A50B4EC09F00850D8B411D00738F00B8C
:10127000F00B08090B6E0B500409036E0A50B4EC16
:1012800009F00B50FB0B036E0A50B4EC09F0060E8C
:10129000096E300EE82EFED7092EFCD700D01200C2
:1012A000086E0750F00B0909096E09500409036E16
:1012B0000850B4EC09F00950FB0B036E0850B4EC75
:1012C00009F00738F00BF00B0909096E0950040901
:1012D000036E0850B4EC09F00950FB0B036E085084
:1012E000B4EC09F01200800E016E080ED3EC09F088
:1012F0003450C3EC07F0EBEC09F0000E316E000E39
:10130000306E010E076E010E086E345022EC09F0AB
:1013100038EC04F0FDD7E00EF66E130EF76E000EFB
:10132000F86E0900F5CF34F001EE00F0500EEE6AD1
:10133000E806FDE1336A326A000EF86E000173EFD1
:1013400009F001500302F3CF05F0F4CF06F001508D
:101350000402F350062602500302F350062605C08D
:1013600001F006C002F01200066EC580C5B0FED7BF
:101370000650F3EC08F0056E0350F3EC08F0056E30
:10138000C584C5A41200FDD7036E000E026E3A0E8E
:10139000036005D02F0E036402D0010E026E02C05E
:1013A00001F001301200026E3F0EC716000EC66E2D
:1013B000000EC56E0250C6120150C7129382938070
:1013C000C68A1200C5CF01F01F0E0116D8A4FAD7A5
:1013D000C7A41200F7D70F0E956E000E8C6E120088
:0113E00040CC
:020000040020DA
:08000000FFFFFFFFFFFFFFFF00
:020000040030CA
:0E00000000051F1FFF8385FF0FC00FE00F409C
:00000001FF
